{
  "_format": "hh-sol-artifact-1",
  "contractName": "Dappazon",
  "sourceName": "contracts/Dappazon.sol",
  "abi": [
    {
      "inputs": [],
      "stateMutability": "nonpayable",
      "type": "constructor"
    },
    {
      "anonymous": false,
      "inputs": [
        {
          "indexed": false,
          "internalType": "address",
          "name": "buyer",
          "type": "address"
        },
        {
          "indexed": false,
          "internalType": "uint256",
          "name": "orderId",
          "type": "uint256"
        },
        {
          "indexed": false,
          "internalType": "uint256",
          "name": "itemId",
          "type": "uint256"
        }
      ],
      "name": "Buy",
      "type": "event"
    },
    {
      "anonymous": false,
      "inputs": [
        {
          "indexed": false,
          "internalType": "string",
          "name": "name",
          "type": "string"
        },
        {
          "indexed": false,
          "internalType": "uint256",
          "name": "cost",
          "type": "uint256"
        },
        {
          "indexed": false,
          "internalType": "uint256",
          "name": "quantity",
          "type": "uint256"
        }
      ],
      "name": "List",
      "type": "event"
    },
    {
      "inputs": [
        {
          "internalType": "uint256",
          "name": "_id",
          "type": "uint256"
        }
      ],
      "name": "buy",
      "outputs": [],
      "stateMutability": "payable",
      "type": "function"
    },
    {
      "inputs": [
        {
          "internalType": "uint256",
          "name": "",
          "type": "uint256"
        }
      ],
      "name": "items",
      "outputs": [
        {
          "internalType": "uint256",
          "name": "id",
          "type": "uint256"
        },
        {
          "internalType": "string",
          "name": "name",
          "type": "string"
        },
        {
          "internalType": "string",
          "name": "category",
          "type": "string"
        },
        {
          "internalType": "string",
          "name": "image",
          "type": "string"
        },
        {
          "internalType": "uint256",
          "name": "cost",
          "type": "uint256"
        },
        {
          "internalType": "uint256",
          "name": "rating",
          "type": "uint256"
        },
        {
          "internalType": "uint256",
          "name": "stock",
          "type": "uint256"
        }
      ],
      "stateMutability": "view",
      "type": "function"
    },
    {
      "inputs": [
        {
          "internalType": "uint256",
          "name": "_id",
          "type": "uint256"
        },
        {
          "internalType": "string",
          "name": "_name",
          "type": "string"
        },
        {
          "internalType": "string",
          "name": "_category",
          "type": "string"
        },
        {
          "internalType": "string",
          "name": "_image",
          "type": "string"
        },
        {
          "internalType": "uint256",
          "name": "_cost",
          "type": "uint256"
        },
        {
          "internalType": "uint256",
          "name": "_rating",
          "type": "uint256"
        },
        {
          "internalType": "uint256",
          "name": "_stock",
          "type": "uint256"
        }
      ],
      "name": "list",
      "outputs": [],
      "stateMutability": "nonpayable",
      "type": "function"
    },
    {
      "inputs": [
        {
          "internalType": "address",
          "name": "",
          "type": "address"
        }
      ],
      "name": "orderCount",
      "outputs": [
        {
          "internalType": "uint256",
          "name": "",
          "type": "uint256"
        }
      ],
      "stateMutability": "view",
      "type": "function"
    },
    {
      "inputs": [
        {
          "internalType": "address",
          "name": "",
          "type": "address"
        },
        {
          "internalType": "uint256",
          "name": "",
          "type": "uint256"
        }
      ],
      "name": "orders",
      "outputs": [
        {
          "internalType": "uint256",
          "name": "time",
          "type": "uint256"
        },
        {
          "components": [
            {
              "internalType": "uint256",
              "name": "id",
              "type": "uint256"
            },
            {
              "internalType": "string",
              "name": "name",
              "type": "string"
            },
            {
              "internalType": "string",
              "name": "category",
              "type": "string"
            },
            {
              "internalType": "string",
              "name": "image",
              "type": "string"
            },
            {
              "internalType": "uint256",
              "name": "cost",
              "type": "uint256"
            },
            {
              "internalType": "uint256",
              "name": "rating",
              "type": "uint256"
            },
            {
              "internalType": "uint256",
              "name": "stock",
              "type": "uint256"
            }
          ],
          "internalType": "struct Dappazon.Item",
          "name": "item",
          "type": "tuple"
        }
      ],
      "stateMutability": "view",
      "type": "function"
    },
    {
      "inputs": [],
      "name": "owner",
      "outputs": [
        {
          "internalType": "address payable",
          "name": "",
          "type": "address"
        }
      ],
      "stateMutability": "view",
      "type": "function"
    },
    {
      "inputs": [],
      "name": "withdraw",
      "outputs": [],
      "stateMutability": "nonpayable",
      "type": "function"
    }
  ],
  "bytecode": "0x608060405234801561001057600080fd5b50336000806101000a81548173ffffffffffffffffffffffffffffffffffffffff021916908373ffffffffffffffffffffffffffffffffffffffff160217905550611ad4806100606000396000f3fe6080604052600436106100705760003560e01c80638da5cb5b1161004e5780638da5cb5b14610107578063bfb231d214610132578063d96a094a14610175578063eea8a7e81461019157610070565b80633ccfd60b14610075578063713d856b1461008c578063793b8c6d146100c9575b600080fd5b34801561008157600080fd5b5061008a6101ba565b005b34801561009857600080fd5b506100b360048036038101906100ae9190610e6c565b61035b565b6040516100c09190610eb2565b60405180910390f35b3480156100d557600080fd5b506100f060048036038101906100eb9190610ef9565b610373565b6040516100fe929190611082565b60405180910390f35b34801561011357600080fd5b5061011c61058c565b60405161012991906110d3565b60405180910390f35b34801561013e57600080fd5b50610159600480360381019061015491906110ee565b6105b0565b60405161016c9796959493929190611165565b60405180910390f35b61018f600480360381019061018a91906110ee565b61078a565b005b34801561019d57600080fd5b506101b860048036038101906101b3919061131e565b610c6f565b005b60008054906101000a900473ffffffffffffffffffffffffffffffffffffffff1673ffffffffffffffffffffffffffffffffffffffff163373ffffffffffffffffffffffffffffffffffffffff1614610248576040517f08c379a000000000000000000000000000000000000000000000000000000000815260040161023f90611486565b60405180910390fd5b6000471161028b576040517f08c379a0000000000000000000000000000000000000000000000000000000008152600401610282906114f2565b60405180910390fd5b60008060009054906101000a900473ffffffffffffffffffffffffffffffffffffffff1673ffffffffffffffffffffffffffffffffffffffff16476040516102d290611543565b60006040518083038185875af1925050503d806000811461030f576040519150601f19603f3d011682016040523d82523d6000602084013e610314565b606091505b5050905080610358576040517f08c379a000000000000000000000000000000000000000000000000000000000815260040161034f906115a4565b60405180910390fd5b50565b60026020528060005260406000206000915090505481565b600360205281600052604060002060205280600052604060002060009150915050806000015490806001016040518060e0016040529081600082015481526020016001820180546103c3906115f3565b80601f01602080910402602001604051908101604052809291908181526020018280546103ef906115f3565b801561043c5780601f106104115761010080835404028352916020019161043c565b820191906000526020600020905b81548152906001019060200180831161041f57829003601f168201915b50505050508152602001600282018054610455906115f3565b80601f0160208091040260200160405190810160405280929190818152602001828054610481906115f3565b80156104ce5780601f106104a3576101008083540402835291602001916104ce565b820191906000526020600020905b8154815290600101906020018083116104b157829003601f168201915b505050505081526020016003820180546104e7906115f3565b80601f0160208091040260200160405190810160405280929190818152602001828054610513906115f3565b80156105605780601f1061053557610100808354040283529160200191610560565b820191906000526020600020905b81548152906001019060200180831161054357829003601f168201915b505050505081526020016004820154815260200160058201548152602001600682015481525050905082565b60008054906101000a900473ffffffffffffffffffffffffffffffffffffffff1681565b60016020528060005260406000206000915090508060000154908060010180546105d9906115f3565b80601f0160208091040260200160405190810160405280929190818152602001828054610605906115f3565b80156106525780601f1061062757610100808354040283529160200191610652565b820191906000526020600020905b81548152906001019060200180831161063557829003601f168201915b505050505090806002018054610667906115f3565b80601f0160208091040260200160405190810160405280929190818152602001828054610693906115f3565b80156106e05780601f106106b5576101008083540402835291602001916106e0565b820191906000526020600020905b8154815290600101906020018083116106c357829003601f168201915b5050505050908060030180546106f5906115f3565b80601f0160208091040260200160405190810160405280929190818152602001828054610721906115f3565b801561076e5780601f106107435761010080835404028352916020019161076e565b820191906000526020600020905b81548152906001019060200180831161075157829003601f168201915b5050505050908060040154908060050154908060060154905087565b8060016000828152602001908152602001600020600401543410156107e4576040517f08c379a00000000000000000000000000000000000000000000000000000000081526004016107db90611670565b60405180910390fd5b81600060016000838152602001908152602001600020600601541161083e576040517f08c379a0000000000000000000000000000000000000000000000000000000008152600401610835906116dc565b60405180910390fd5b6000600160008581526020019081526020016000206040518060e001604052908160008201548152602001600182018054610878906115f3565b80601f01602080910402602001604051908101604052809291908181526020018280546108a4906115f3565b80156108f15780601f106108c6576101008083540402835291602001916108f1565b820191906000526020600020905b8154815290600101906020018083116108d457829003601f168201915b5050505050815260200160028201805461090a906115f3565b80601f0160208091040260200160405190810160405280929190818152602001828054610936906115f3565b80156109835780601f1061095857610100808354040283529160200191610983565b820191906000526020600020905b81548152906001019060200180831161096657829003601f168201915b5050505050815260200160038201805461099c906115f3565b80601f01602080910402602001604051908101604052809291908181526020018280546109c8906115f3565b8015610a155780601f106109ea57610100808354040283529160200191610a15565b820191906000526020600020905b8154815290600101906020018083116109f857829003601f168201915b505050505081526020016004820154815260200160058201548152602001600682015481525050905060006040518060400160405280428152602001838152509050600260003373ffffffffffffffffffffffffffffffffffffffff1673ffffffffffffffffffffffffffffffffffffffff1681526020019081526020016000206000815480929190610aa79061172b565b919050555080600360003373ffffffffffffffffffffffffffffffffffffffff1673ffffffffffffffffffffffffffffffffffffffff1681526020019081526020016000206000600260003373ffffffffffffffffffffffffffffffffffffffff1673ffffffffffffffffffffffffffffffffffffffff16815260200190815260200160002054815260200190815260200160002060008201518160000155602082015181600101600082015181600001556020820151816001019081610b6e919061191f565b506040820151816002019081610b84919061191f565b506060820151816003019081610b9a919061191f565b506080820151816004015560a0820151816005015560c082015181600601555050905050600160008681526020019081526020016000206006016000815480929190610be5906119f1565b91905055507f1cbc5ab135991bd2b6a4b034a04aa2aa086dac1371cb9b16b8b5e2ed6b036bed33600260003373ffffffffffffffffffffffffffffffffffffffff1673ffffffffffffffffffffffffffffffffffffffff168152602001908152602001600020548460000151604051610c6093929190611a29565b60405180910390a15050505050565b60008054906101000a900473ffffffffffffffffffffffffffffffffffffffff1673ffffffffffffffffffffffffffffffffffffffff163373ffffffffffffffffffffffffffffffffffffffff1614610cfd576040517f08c379a0000000000000000000000000000000000000000000000000000000008152600401610cf490611486565b60405180910390fd5b60006040518060e0016040528089815260200188815260200187815260200186815260200185815260200184815260200183815250905080600160008a8152602001908152602001600020600082015181600001556020820151816001019081610d67919061191f565b506040820151816002019081610d7d919061191f565b506060820151816003019081610d93919061191f565b506080820151816004015560a0820151816005015560c082015181600601559050507ffdbe2a012c10ec01592653978eaa09b5ca60b143a0e617505b2ebcbd911ec5b8878584604051610de893929190611a60565b60405180910390a15050505050505050565b6000604051905090565b600080fd5b600080fd5b600073ffffffffffffffffffffffffffffffffffffffff82169050919050565b6000610e3982610e0e565b9050919050565b610e4981610e2e565b8114610e5457600080fd5b50565b600081359050610e6681610e40565b92915050565b600060208284031215610e8257610e81610e04565b5b6000610e9084828501610e57565b91505092915050565b6000819050919050565b610eac81610e99565b82525050565b6000602082019050610ec76000830184610ea3565b92915050565b610ed681610e99565b8114610ee157600080fd5b50565b600081359050610ef381610ecd565b92915050565b60008060408385031215610f1057610f0f610e04565b5b6000610f1e85828601610e57565b9250506020610f2f85828601610ee4565b9150509250929050565b610f4281610e99565b82525050565b600081519050919050565b600082825260208201905092915050565b60005b83811015610f82578082015181840152602081019050610f67565b60008484015250505050565b6000601f19601f8301169050919050565b6000610faa82610f48565b610fb48185610f53565b9350610fc4818560208601610f64565b610fcd81610f8e565b840191505092915050565b600060e083016000830151610ff06000860182610f39565b50602083015184820360208601526110088282610f9f565b915050604083015184820360408601526110228282610f9f565b9150506060830151848203606086015261103c8282610f9f565b91505060808301516110516080860182610f39565b5060a083015161106460a0860182610f39565b5060c083015161107760c0860182610f39565b508091505092915050565b60006040820190506110976000830185610ea3565b81810360208301526110a98184610fd8565b90509392505050565b60006110bd82610e0e565b9050919050565b6110cd816110b2565b82525050565b60006020820190506110e860008301846110c4565b92915050565b60006020828403121561110457611103610e04565b5b600061111284828501610ee4565b91505092915050565b600082825260208201905092915050565b600061113782610f48565b611141818561111b565b9350611151818560208601610f64565b61115a81610f8e565b840191505092915050565b600060e08201905061117a600083018a610ea3565b818103602083015261118c818961112c565b905081810360408301526111a0818861112c565b905081810360608301526111b4818761112c565b90506111c36080830186610ea3565b6111d060a0830185610ea3565b6111dd60c0830184610ea3565b98975050505050505050565b600080fd5b600080fd5b7f4e487b7100000000000000000000000000000000000000000000000000000000600052604160045260246000fd5b61122b82610f8e565b810181811067ffffffffffffffff8211171561124a576112496111f3565b5b80604052505050565b600061125d610dfa565b90506112698282611222565b919050565b600067ffffffffffffffff821115611289576112886111f3565b5b61129282610f8e565b9050602081019050919050565b82818337600083830152505050565b60006112c16112bc8461126e565b611253565b9050828152602081018484840111156112dd576112dc6111ee565b5b6112e884828561129f565b509392505050565b600082601f830112611305576113046111e9565b5b81356113158482602086016112ae565b91505092915050565b600080600080600080600060e0888a03121561133d5761133c610e04565b5b600061134b8a828b01610ee4565b975050602088013567ffffffffffffffff81111561136c5761136b610e09565b5b6113788a828b016112f0565b965050604088013567ffffffffffffffff81111561139957611398610e09565b5b6113a58a828b016112f0565b955050606088013567ffffffffffffffff8111156113c6576113c5610e09565b5b6113d28a828b016112f0565b94505060806113e38a828b01610ee4565b93505060a06113f48a828b01610ee4565b92505060c06114058a828b01610ee4565b91505092959891949750929550565b7f4f6e6c79206f776e65722063616e2063616c6c20746869732066756e6374696f60008201527f6e00000000000000000000000000000000000000000000000000000000000000602082015250565b600061147060218361111b565b915061147b82611414565b604082019050919050565b6000602082019050818103600083015261149f81611463565b9050919050565b7f4e6f2066756e647320746f207769746864726177000000000000000000000000600082015250565b60006114dc60148361111b565b91506114e7826114a6565b602082019050919050565b6000602082019050818103600083015261150b816114cf565b9050919050565b600081905092915050565b50565b600061152d600083611512565b91506115388261151d565b600082019050919050565b600061154e82611520565b9150819050919050565b7f5472616e73666572206661696c65640000000000000000000000000000000000600082015250565b600061158e600f8361111b565b915061159982611558565b602082019050919050565b600060208201905081810360008301526115bd81611581565b9050919050565b7f4e487b7100000000000000000000000000000000000000000000000000000000600052602260045260246000fd5b6000600282049050600182168061160b57607f821691505b60208210810361161e5761161d6115c4565b5b50919050565b7f496e73756666696369656e74207061796d656e74000000000000000000000000600082015250565b600061165a60148361111b565b915061166582611624565b602082019050919050565b600060208201905081810360008301526116898161164d565b9050919050565b7f4974656d206f7574206f662073746f636b000000000000000000000000000000600082015250565b60006116c660118361111b565b91506116d182611690565b602082019050919050565b600060208201905081810360008301526116f5816116b9565b9050919050565b7f4e487b7100000000000000000000000000000000000000000000000000000000600052601160045260246000fd5b600061173682610e99565b91507fffffffffffffffffffffffffffffffffffffffffffffffffffffffffffffffff8203611768576117676116fc565b5b600182019050919050565b60008190508160005260206000209050919050565b60006020601f8301049050919050565b600082821b905092915050565b6000600883026117d57fffffffffffffffffffffffffffffffffffffffffffffffffffffffffffffffff82611798565b6117df8683611798565b95508019841693508086168417925050509392505050565b6000819050919050565b600061181c61181761181284610e99565b6117f7565b610e99565b9050919050565b6000819050919050565b61183683611801565b61184a61184282611823565b8484546117a5565b825550505050565b600090565b61185f611852565b61186a81848461182d565b505050565b5b8181101561188e57611883600082611857565b600181019050611870565b5050565b601f8211156118d3576118a481611773565b6118ad84611788565b810160208510156118bc578190505b6118d06118c885611788565b83018261186f565b50505b505050565b600082821c905092915050565b60006118f6600019846008026118d8565b1980831691505092915050565b600061190f83836118e5565b9150826002028217905092915050565b61192882610f48565b67ffffffffffffffff811115611941576119406111f3565b5b61194b82546115f3565b611956828285611892565b600060209050601f8311600181146119895760008415611977578287015190505b6119818582611903565b8655506119e9565b601f19841661199786611773565b60005b828110156119bf5784890151825560018201915060208501945060208101905061199a565b868310156119dc57848901516119d8601f8916826118e5565b8355505b6001600288020188555050505b505050505050565b60006119fc82610e99565b915060008203611a0f57611a0e6116fc565b5b600182039050919050565b611a2381610e2e565b82525050565b6000606082019050611a3e6000830186611a1a565b611a4b6020830185610ea3565b611a586040830184610ea3565b949350505050565b60006060820190508181036000830152611a7a818661112c565b9050611a896020830185610ea3565b611a966040830184610ea3565b94935050505056fea2646970667358221220185a34977391a2bc89d6cde28c7783f7c40e8e9506ff6196b79abeff6cbd090b64736f6c63430008180033",
  "linkReferences": {},
  "deployedLinkReferences": {}
}